:100000000C9434000C9451000C9451000C94510049
:100010000C9451000C9451000C9451000C9451001C
:100020000C9451000C9451000C9451000C9451000C
:100030000C9451000C9451000C9451000C945100FC
:100040000C9451000C9451000C9451000C945100EC
:100050000C9451000C9451000C9451000C945100DC
:100060000C9451000C94510011241FBECFEFD8E026
:10007000DEBFCDBF11E0A0E0B1E0E2E9F1E002C0F7
:1000800005900D92A031B107D9F721E0A0E1B1E0D0
:1000900001C01D92A231B207E1F70E94B7000C9493
:1000A000C7000C94000080EF84B98FEF85B985B14B
:1000B0008F7085B983B18F70809311018F30B9F73C
:1000C00083B18F7080931101809110018F30C1F343
:1000D00083B18F70809311018F3091F38FEE85B9CA
:1000E00083B18F70809311018F3019F0109210013D
:1000F00017C08FED85B983B18F70809311018F3058
:1001000021F081E0809310010BC08FEB85B983B1A2
:100110008F70809311018F3031F282E08093100153
:10012000809111018E3039F4E0911001F0E0E0503F
:10013000FF4F808108958D3039F4E0911001F0E097
:10014000E050FF4F848108958B3039F4E091100125
:10015000F0E0E050FF4F80850895873039F4E0915A
:100160001001F0E0E050FF4F8485089508958FEF6F
:100170008AB90E9453008BB92FEF80E792E021509B
:1001800080409040E1F700C000001BB8F2CFF89427
:02019000FFCF9F
:100192003132330034353600373839002A30230003
:00000001FF
