S0130000416C61726D54696D696E672E73726563BC
S11300000C9435000C945D000C945D000C945D0020
S11300100C945D000C945D000C945D000C945D00E8
S11300200C945D000C945D000C945D000C945D00D8
S11300300C945D000C945D000C945D000C945D00C8
S11300400C945D000C945D000C945D000C945D00B8
S11300500C945D000C945D000C945D000C945D00A8
S11300600C945D000C945D00340A11241FBECFEF84
S1130070D8E0DEBFCDBF11E0A0E0B1E0EAE5FAE1EF
S113008002C005900D92AC3CB107D9F721E0ACEC6D
S1130090B1E001C01D92AD3CB207E1F710E0C5E349
S11300A0D0E004C02197FE010E943B0AC433D1076B
S11300B0C9F70E947E040C942B0D0C940000089543
S11300C08FEF8093B800089584EA8093BC008091F8
S11300D0BC008823E4F7089584E98093BC00089564
S11300E06093BB0084E88093BC008091BC008823AB
S11300F0E4F7089584EC8093BC008091BC008823CD
S1130100E4F78091BB00089584E88093BC0080915B
S1130110BC008823E4F78091BB0008959DEC699F9F
S1130120912D1124969596959695292F220F822F1D
S1130130880F880F820F681B862F20E1929F800D05
S113014011240895862F82958F70880F982F990F08
S1130150990F890F6F70860F0895CF93DF93EC0189
S11301600E94640060EDCE010E9470006EE0CE013A
S11301700E94700060E2CE010E94700068E0CE012F
S11301800E947000CE010E946C00DF91CF9108950F
S1130190AF92CF92DF92EF92FF920F931F93CF9380
S11301A0DF93EC01D62EF42E122F0E94640060ED32
S11301B0CE010E94700060E0CE010E9470006D2D9F
S11301C0CE010E948E00682FCE010E9470006F2D18
S11301D0CE010E948E00682FCE010E947000612F14
S11301E0CE010E948E00682FCE010E9470006C2DFB
S11301F0CE010E948E00682FCE010E947000602FF5
S1130200CE010E948E00682FCE010E9470006E2DD8
S1130210CE010E948E00682FCE010E9470006A2DCC
S1130220CE010E948E00682FCE010E947000CE0184
S11302300E946C00DF91CF911F910F91FF90EF907E
S1130240DF90CF90AF9008954F925F926F927F921C
S11302508F929F92AF92BF92CF92DF92EF92FF92D2
S11302600F931F93CF93DF93EC014B013A012901C4
S11302700E94640060EDCE010E94700060E0CE0137
S11302800E947000CE010E946C00CE010E946400A6
S113029061EDCE010E947000CE010E947A00682FA9
S11302A0CE010E94A20090E0F40191838083CE01EC
S11302B00E947A00682FCE010E94A20090E0F30110
S11302C091838083CE010E947A00682FCE010E9420
S11302D0A20090E0F20191838083CE010E947A0013
S11302E0682FCE010E94A20090E0F70191838083E1
S11302F0CE010E947A00682FCE010E94A20090E0F5
S1130300F80191838083CE010E947A00682FCE0188
S11303100E94A20090E0F60191838083CE010E94A6
S11303208400682FCE010E94A20090E0F501918321
S11303308083CE010E946C00DF91CF911F910F91B9
S1130340FF90EF90DF90CF90BF90AF909F908F90F1
S11303507F906F905F904F900895CF93DF93EC015F
S11303600E946000CE010E94AD00DF91CF910895FC
S11303708BB18F70962F907F892B8BB98BB18E7F29
S11303808BB98BB182608BB98BB18D7F8BB98BB1FB
S113039090E1699FB00111248F70682B6BB98BB108
S11303A082608BB98BB18D7F8BB987EC90E001971C
S11303B0F1F700C000000895CF93DF93EC018FEFB5
S11303C08AB98FE39FE10197F1F700C0000062E072
S11303D0CE010E94B80168E2CE010E94B8016CE02F
S11303E0CE010E94B80166E0CE010E94B80161E02E
S11303F0CE010E94B8018FE39FE10197F1F700C09D
S11304000000DF91CF9108958BB18F70962F907F6C
S1130410892B8BB98BB181608BB98BB182608BB91D
S113042085E08A95F1F700008BB18D7F8BB98BB194
S113043090E1699FB00111248F70682B6BB98BB167
S113044082608BB98BB18D7F8BB98FE39FE101976C
S1130450F1F700C000000895EF92FF920F931F93ED
S1130460CF93DF937C018B01C0E0D0E0F801EC0F67
S1130470FD1F6081662329F0C7010E9404022196B2
S1130480F5CFDF91CF911F910F91FF90EF900895D9
S1130490CF93DF93EC0161E00E94B8018FE39FE109
S11304A00197F1F700C0000060E0CE010E94B8019E
S11304B0DF91CF910895611108C0403130F44F703D
S11304C0642F60680E94B8010895613039F44031A6
S11304D028F44F70642F606C0E94B80108956FE097
S11304E00E94B80108956CE00E94B80108956F92CB
S11304F07F928F929F92AF92BF92CF92DF92EF92B0
S1130500FF920F931F93CF93DF93CDB7DEB7A097DE
S11305100FB6F894DEBF0FBECDBF4C017F936F932F
S11305205F934F933F932F938FE491E09F938F9327
S1130530CE0101963C019F938F930E94410ABF9282
S1130540AF92DF92CF921F930F938FE591E09F9329
S11305508F938E010F5E1F4F1F930F930E94410ACA
S1130560B301C4010E942C0262E871E0C4010E943C
S11305702C0260ECC4010E94B801B801C4010E94BD
S11305802C026EE671E0C4010E942C02B701660FD2
S1130590771F660F771F660F771F6E197F096050EC
S11305A07F4FC4010E942C020FB6F894DEBF0FBE29
S11305B0CDBFA0960FB6F894DEBF0FBECDBFDF91BE
S11305C0CF911F910F91FF90EF90DF90CF90BF904C
S11305D0AF909F908F907F906F9008952F923F924D
S11305E04F925F926F927F928F929F92AF92BF923F
S11305F0CF92DF92EF92FF920F931F93CF93DF93EB
S1130600CDB7DEB7A4970FB6F894DEBF0FBECDBF4B
S11306103C01362E272E542E452E29A33AA30BA394
S11306201CA340E060E00E945B022F923F924F9235
S11306305F922AA12F9389A18F9382E791E09F93E0
S11306408F938E010F5F1F4F1F930F930E94410AD8
S1130650BF92AF92DF92CF929CA19F932BA12F9335
S11306608FE591E09F938F936E0181E1C80ED11CB9
S1130670DF92CF920E94410AB801C3010E942C026A
S113068061E871E0C3010E942C0260ECC3010E9486
S1130690B801B601C3010E942C026EE671E0C301E9
S11306A00E942C02B701660F771F660F771F660F33
S11306B0771F6E197F0960507F4FC3010E942C027F
S11306C0F401EE0FFF1FEE0FFF1FEF5CFE4F4081A2
S11306D06281C3010E945B02C3010E946F029FEF0B
S11306E021EE84E0915020408040E1F700C00000FA
S11306F00FB6F894DEBF0FBECDBFA4960FB6F89424
S1130700DEBF0FBECDBFDF91CF911F910F91FF9040
S1130710EF90DF90CF90BF90AF909F908F907F909D
S11307206F905F904F903F902F9008954F925F92FB
S11307306F927F928F929F92AF92BF92CF92DF92ED
S1130740EF92FF920F931F93CF93DF93CDB7DEB752
S1130750A0970FB6F894DEBF0FBECDBF6C01762E06
S1130760672EB42EA52E422E532E40E060E00E9448
S11307705B026F927F92AF92BF928AE891E09F935F
S11307808F93CE0101965C019F938F930E94410A3F
S11307901F930F935F924F928EE991E09F938F93F3
S11307A08E010F5E1F4F1F930F930E94410AB501E4
S11307B0C6010E942C0240E061E0C6010E945B0277
S11307C0B801C6010E942C020FB6F894DEBF0FBE1A
S11307D0CDBF91E0E916F10461F0E114F10471F088
S11307E082E0E816F10481F093E0E916F104C1F423
S11307F011C06894882483F8912C12C00F2EFBE05A
S11308008F2EF02D912C0CC06894882483F89924A1
S1130810939406C00F2EFBE08F2EF02D9924939411
S1130820482D692DC6010E945B02C6010E946F0219
S1130830A0960FB6F894DEBF0FBECDBFDF91CF9167
S11308401F910F91FF90EF90DF90CF90BF90AF90EA
S11308509F908F907F906F905F904F900895EF924C
S1130860FF920F931F93CF93DF93CDB7DEB76097BB
S11308700FB6F894DEBF0FBECDBF8C01F62EE72E67
S113088040E060E00E945B0262EB71E0C8010E94FC
S11308902C0240E061E0C8010E945B02EF92FF92EB
S11308A089EC91E09F938F93CE0101967C019F93F5
S11308B08F930E94410AB701C8010E942C020F9035
S11308C00F900F900F900F900F9060960FB6F894C2
S11308D0DEBF0FBECDBFDF91CF911F910F91FF906F
S11308E0EF900895019749F46F3F7F4F31F461E031
S11308F070E08CEC91E00E945F000895CF93DF9349
S1130900CDB7DEB7C357D1090FB6F894DEBF0FBE1B
S1130910CDBF8CEC91E00E94AD018CEC91E00E9483
S1130920DC0114B884E08AB98FE385B90F2EF5E1B0
S1130930AF2EB12CF02D6894CC24C2F8D12CEE2427
S1130940E394F12C01E010E020E030E040E050E0DE
S113095060E070E08CEC91E00E94C8008AE0FE0147
S11309603196DF01082F1D920A95E9F73A96DF01C7
S1130970082F1D920A95E9F73A96DF01082F1D9278
S11309800A95E9F73A96DF01082F1D920A95E9F7CF
S11309903A96DF011D928A95E9F78AE0E5E4F1E0F1
S11309A0DE01D39601900D928A95E1F7A8961FAEC9
S11309B01EAEA89762961FAE1EAE6297A6961FAE95
S11309C01EAEA697AA961FAE1EAEAA97E4961FAEB9
S11309D01EAEE497E2961FAE1EAEE297E0961FAEFF
S11309E01EAEE097AE961FAE1EAEAE97AC961FAE8F
S11309F01EAEAC9760961FAE1EAE6097212C312CB4
S1130A00412C512C8CEC91E00E94DC018CEC91E0A7
S1130A100E947302FE01FD965F018E01015C1F4F6F
S1130A2068019E012F5B3F4F79010C5F1F4F2C5FC4
S1130A303F4FAE01495B5F4FBE01675B7F4F8CEC5C
S1130A4091E00E94240183B171E0382F31706F96D8
S1130A503FAF6F97A0961FAEA09780FD70E083B163
S1130A608270A82EB12CA1E0A114B10409F0A0E079
S1130A7083B18470882E912C81E06D968FAF6D9731
S1130A808114910419F06D961FAE6D9783B188702F
S1130A90C82ED12C91E06E969FAF6E97C114D104ED
S1130AA019F06E961FAE6E9763B162956F7081E018
S1130AB06827617083B18072E82FF0E0A296FFAFDF
S1130AC0EEAFA29791E064960EAD1FAD649704302B
S1130AD011050CF090E081E06114710409F080E0EC
S1130AE0892391E02E962EAD3FAD2E97232B09F04E
S1130AF090E08823B1F09923A1F080E090E0853064
S1130B0091057CF4FC01EE0FFF1F01E010E00C0FD7
S1130B101D1FE00FF11F21E030E033AB22AB019643
S1130B20EECF81E062962EAD3FAD6297232B09F0A4
S1130B3080E0862391E06096EEADFFAD6097EF2BE9
S1130B4009F090E0882361F0992351F0A8961FAE34
S1130B501EAEA89701E010E060961FAF0EAF60973D
S1130B6060962EAD3FAD60972130310509F098C1F4
S1130B70A6968EAD9FADA697892B09F061C0A89665
S1130B80AEADBFADA897AB2B91F48CEC91E00E9475
S1130B90480281E0A896EEADFFADA897EF2B09F0CF
S1130BA080E0082F10E0A8961FAF0EAFA897AA9672
S1130BB06EAD7FADAA978CEC91E00E942F04AB2818
S1130BC089F4AA962EAD3FADAA972F5F3F4FAA9600
S1130BD03FAF2EAFAA972530310524F0AA961FAE59
S1130BE01EAEAA97CD2809F025C4AA96EEADFFAD96
S1130BF0AA97EE0FFF1F81E090E08C0F9D1FE80F76
S1130C00F91FA081B181AE96BFAFAEAFAE9702859A
S1130C101385E0961FAF0EAFE09724893589E296DD
S1130C203FAF2EAFE297868D978DE4969FAF8EAF40
S1130C30E497A1E0B0E0A696BFAFAEAFA697FAC323
S1130C40AC96EEACFFACAC97E4960EAD1FADE4975A
S1130C50E2962EAD3FADE297E0964EAD5FADE097E4
S1130C60AE966EAD7FADAE978CEC91E00E9496038C
S1130C70A096EEADFFADA097EF2B89F4AC960EAD28
S1130C801FADAC970F5F1F4FAC961FAF0EAFAC9765
S1130C900430110524F0AC961FAE1EAEAC97AB2801
S1130CA009F05BC0AC962EAD3FADAC97232B79F425
S1130CB0AE968EAD9FADAE970196AE969FAF8EAFBA
S1130CC0AE97CC9724F0AE961FAE1EAEAE97AC9600
S1130CD0AEADBFADAC97119779F4E096EEADFFAD34
S1130CE0E0973196E096FFAFEEAFE097789724F067
S1130CF0E0961FAE1EAEE097AC960EAD1FADAC975E
S1130D000230110599F4E2962EAD3FADE2972F5FC4
S1130D103F4FE2963FAF2EAFE2972032310534F0D9
S1130D2081E090E0E2969FAF8EAFE297AC96AEADD5
S1130D30BFADAC97139789F4E496EEADFFADE4979D
S1130D403196E496FFAFEEAFE4973D9734F001E0BF
S1130D5010E0E4961FAF0EAFE497892809F061C054
S1130D60AC962EAD3FADAC97232B89F4AE968EADE9
S1130D709FADAE970197AE969FAF8EAFAE97992376
S1130D8034F4ABE3B0E0AE96BFAFAEAFAE97AC9683
S1130D90EEADFFADAC97319791F4E0960EAD1FAD7B
S1130DA0E09701501109E0961FAF0EAFE0971123B1
S1130DB034F427E130E0E0963FAF2EAFE097AC96F5
S1130DC08EAD9FADAC97029791F4E296AEADBFADF8
S1130DD0E2971197E296BFAFAEAFE2971A161B06E1
S1130DE034F0EFE1F0E0E296FFAFEEAFE297AC96BD
S1130DF00EAD1FADAC970330110599F4E4962EADFA
S1130E003FADE49721503109E4963FAF2EAFE4970C
S1130E101216130634F08CE090E0E4969FAF8EAF88
S1130E20E497CD2809F006C3AA960EAD1FADAA9784
S1130E30000F111FA1E0B0E0AC0FBD1F0A0F1B1F74
S1130E40AE962EAD3FADAE97F80131832083E09688
S1130E508EAD9FADE09793878287E296AEADBFAD2E
S1130E60E297B58BA48BE4962EAD3FADE497378F14
S1130E70268FEE24E394F12CF1A6E0A68CEC91E00D
S1130E800E947302D801D396FC92EE92D297A69652
S1130E901FAE1EAEA69760961FAE1EAE6097CAC266
S1130EA040E050E0453051050CF08AC0FA01EE0FE5
S1130EB0FF1F01E010E00C0F1D1FE00FF11F8081E8
S1130EC091810284F385E02D21E029960EAD1FADBA
S1130ED029970817190709F020E081E027960EAD3D
S1130EE01FAD27970E171F0709F080E0322F382314
S1130EF0FA01EE0FFF1F81E090E08C0F9D1FE80FB9
S1130F00F91F8489958921E02596EEADFFAD2597DB
S1130F10E817F90709F020E0FA01EE0FFF1F01E0DE
S1130F2010E00C0F1D1FE00FF11F068CF78DE02D54
S1130F3091E021960EAD1FAD21970E171F0709F002
S1130F4090E0FA01EE0FFF1F01E010E00C0F1D1FEF
S1130F50E00FF11F00A4F1A5E02D81E0319709F025
S1130F6080E0FA01EE0FFF1F01E010E00C0F1D1FDF
S1130F70E00FF11F02A913A9E1E00130110509F006
S1130F80E0E0232392238923C1F0EE23B1F084E02F
S1130F908BB91FEF21EE34E0115020403040E1F7CF
S1130FA000C000001BB8A4965FAF4EAFA49781E0C9
S1130FB090E062969FAF8EAF62974F5F5F4F72CFA4
S1130FC081E06296EEADFFAD6297319709F080E063
S1130FD08823F9F06623E9F0A496EEADFFADA4975B
S1130FE0EE0FFF1F01E010E00C0F1D1FE00FF11FBB
S1130FF013AA12AA11A610A61FEF29E638E1115070
S113100020403040E1F700C0000062961FAE1EAEE3
S1131010629781E04114510409F080E08823B9F11A
S11310207723A9F12B968EAD9FAD2B9764969FAF36
S11310308EAF649729966EAC7FAC29972596EEAD5A
S1131040FFAD25976696FFAFEEAF669723960EAD7C
S11310501FAD239768961FAF0EAF689721962EADEC
S11310603FAD21976A963FAF2EAF6A9727968EAD14
S11310709FAD27972E969FAF8EAF2E97EDADFEAD09
S11310806C96FFAFEEAF6C9744244394512CF1E07F
S11310902C96FFAF2C9701E04016510419F02C96C2
S11310A01FAE2C97772371F02C961FAD2C9711232C
S11310B049F02FEF221A320A35E02316310414F0D6
S11310C0212C312CAA2309F493C02C968FAD2C9794
S11310D0882309F48DC02114310449F49FEF691A5F
S11310E0790AACE36A16710414F0612C712CB1E036
S11310F02B16310479F42E96EEADFFAD2E97319672
S11311002E96FFAFEEAF2E97789724F02E961FAE53
S11311101EAE2E97F2E02F16310411F566960EAD31
S11311201FAD66970F5F1F4F66961FAF0EAF669792
S11311300032110534F021E030E066963FAF2EAF67
S1131140669768968EAD9FAD6897019668969FAF37
S11311508EAF6897079724F068961FAE1EAE689707
S113116093E02916310489F46A96AEADBFAD6A974F
S113117011966A96BFAFAEAF6A971D9734F0E1E05F
S1131180F0E06A96FFAFEEAF6A97F4E02F163104F1
S113119089F46C960EAD1FAD6C970F5F1F4F6C9664
S11311A01FAF0EAF6C970436110524F06C961FAE7A
S11311B01EAE6C9741016C96AEACBFAC6C976A9650
S11311C0CEACDFAC6A976896EEACFFAC68976696D7
S11311D00EAD1FAD66972E962EAD3FAD2E97A30193
S11311E064966EAD7FAD64978CEC91E00E94EE0244
S11311F06D961FAD6D97112309F498C02C962FADF1
S11312002C97222309F492C02114310449F431E0CB
S1131210631A71082AF40F2EFBE36F2E712CF02D44
S113122081E02816310489F42E96AEADBFAD2E9719
S113123011972E96BFAFAEAF2E97BB2334F4E7E1E0
S1131240F0E02E96FFAFEEAF2E97F2E02F163104AA
S113125021F566960EAD1FAD66970150110966968D
S11312601FAF0EAF66971016110634F02FE130E071
S113127066963FAF2EAF669768968EAD9FAD689722
S1131280019768969FAF8EAF6897992334F4A6E0D0
S1131290B0E06896BFAFAEAF6897B3E02B163104E9
S11312A089F46A96EEADFFAD6A9731976A96FFAFFF
S11312B0EEAF6A97FF2334F40CE010E06A961FAF98
S11312C00EAF6A9714E02116310491F46C962EAD9A
S11312D03FAD6C97215031096C963FAF2EAF6C97A0
S11312E0332334F483E690E06C969FAF8EAF6C9713
S11312F041016C96AEACBFAC6C976A96CEACDFACD9
S11313006A976896EEACFFAC689766960EAD1FAD13
S113131066972E962EAD3FAD2E97A30164966EADC3
S11313207FAD64978CEC91E00E94EE026E969FADC7
S11313306E97992331F12C96AFAD2C97AA2309F11E
S11313406C96AEACBFAC6C976896CEACDFAC6897CD
S11313506A96EEACFFAC6A9766960EAD1FAD6697C3
S11313602E962EAD3FAD2E97A30160E070E08CEC7D
S113137091E00E94C8008CEC91E00E947302412C21
S1131380512C41145104C1F5FE01FD965F018E01FB
S1131390015C1F4F68019E012F5B3F4F79010C5F79
S11313A01F4F2C5F3F4FAE01495B5F4FBE01675B30
S11313B07F4F8CEC91E00E942401ADACBEAC219631
S11313C0CEACDFAC21972396EEACFFAC23972596E9
S11313D00EAD1FAD259727962EAD3FAD27972996C5
S11313E04EAD5FAD29972B966EAD7FAD2B978CECF0
S11313F091E00E9477021EC041016C96AEACBFAC76
S11314006C976A96CEACDFAC6A976896EEACFFAC8C
S1131410689766960EAD1FAD66972E962EAD3FADBE
S11314202E97A30164966EAD7FAD64978CEC91E02A
S11314300E94EE02A2968EAD9FADA297892B51F425
S1131440A6961FAE1EAEA69760961FAE1EAE609700
S1131450412C512C9FEFA3ECB9E09150A040B04037
S1131460E1F700C00000CECA6FEF7FEF81E090E0AB
S11314700E9472040895EE0FFF1F0590F491E02D71
S11314800994AEE0B0E0E7E4FAE00C94020D0D89B3
S11314901E8986E08C831A8309838FEF9FE79E83DE
S11314A08D83AE01475E5F4F6F89788DCE010196C3
S11314B00E94630AEF81F885E00FF11F10822E96D7
S11314C0E4E00C941E0DABE0B0E0E9E6FAE00C9425
S11314D0F40C6C017B018A01FC0117821682838162
S11314E081FFCCC1CE0101963C01F6019381F70145
S11314F093FD859193FF81917F01882309F4BAC1FB
S1131500853239F493FD859193FF81917F01853272
S113151029F4B60190E00E945A0CE7CF912C212CBB
S1131520312CFFE1F315D8F08B3279F038F48032A6
S113153079F08332A1F4232D20611DC08D3261F036
S1131540803369F4232D216016C0832D8260382EE8
S1131550E32DE4603E2E2AC0F32DF8601DC037FC55
S11315602DC020ED280F2A3040F08E32B9F436FC1D
S113157081C1232D2064322E19C036FE06C08AE0B4
S1131580989E200D1124922E11C0EAE02E9E200D6B
S11315901124222EF32DF0623F2E08C08C3621F444
S11315A0832D8068382E02C0883641F4F70193FDFC
S11315B0859193FF81917F018111B3CF982F9F7DF6
S11315C09554933028F40C5F1F4F9FE399830DC00B
S11315D0833631F0833771F0833509F059C021C067
S11315E0F801808189830E5F1F4F88248394912C96
S11315F0530113C02801F2E04F0E511CF801A080E2
S1131600B18036FE03C0692D70E002C06FEF7FEF3A
S1131610C5010E944F0C4C018201F32DFF773F2E30
S113162016C0280122E0420E511CF801A080B180AE
S113163036FE03C0692D70E002C06FEF7FEFC50175
S11316400E94440C4C01F32DF0683F2E820133FCC0
S11316501BC0822D90E088169906B0F4B60180E292
S113166090E00E945A0C2A94F4CFF50137FC85913E
S113167037FE81915F01B60190E00E945A0C21105F
S11316802A9421E0821A91088114910471F7E8C028
S1131690843611F0893641F5F80137FE07C06081C0
S11316A07181828193810C5F1F4F08C060817181B9
S11316B0072E000C880B990B0E5F1F4FF32DFF763E
S11316C03F2E97FF09C090958095709561957F4F47
S11316D08F4F9F4FF0683F2E2AE030E0A3010E9415
S11316E0960C882E861845C0853731F4232D2F7E1D
S11316F0B22E2AE030E025C0932D997FB92E8F3683
S1131700C1F018F4883579F0B5C0803719F08837FE
S113171021F0B0C0E92FE061BE2EB4FE0DC0FB2D58
S1131720F460BF2E09C034FE0AC0292F2660B22EF1
S113173006C028E030E005C020E130E002C020E12E
S113174032E0F801B7FE07C0608171818281938124
S11317500C5F1F4F06C06081718180E090E00E5FD6
S11317601F4FA3010E94960C882E8618FB2DFF772D
S11317703F2E36FE0DC0232D2E7FA22E891458F441
S113178034FE0BC032FC09C0832D8E7EA82E05C00A
S1131790B82CA32C03C0B82C01C0B92CA4FE0FC0D4
S11317A0FE01E80DF11D8081803321F49A2D997E8C
S11317B0A92E09C0A2FE06C0B394B39404C08A2D16
S11317C0867809F0B394A3FC11C0A0FE06C0B2143D
S11317D088F4280C922C9B180EC0B21460F4B60145
S11317E080E290E00E945A0CB394F7CFB21418F43C
S11317F02B1802C0982C212CA4FE10C0B60180E343
S113180090E00E945A0CA2FE17C0A1FC03C088E716
S113181090E002C088E590E0B6010CC08A2D86787D
S113182059F0A1FE02C08BE201C080E2A7FC8DE268
S1131830B60190E00E945A0C891438F4B60180E392
S113184090E00E945A0C9A94F7CF8A94F301E80D21
S1131850F11D8081B60190E00E945A0C8110F5CFF1
S1131860222009F442CEB60180E290E00E945A0C94
S11318702A94F6CFF6018681978102C08FEF9FEFFD
S11318802B96E2E10C94100DFC0105906150704020
S11318900110D8F7809590958E0F9F1F0895FC0135
S11318A06150704001900110D8F7809590958E0F8B
S11318B09F1F08950F931F93CF93DF93FB01238101
S11318C021FD03C08FEF9FEF2CC022FF16C046817D
S11318D05781248135814217530744F4A081B18193
S11318E09D012F5F3F4F318320838C932681378165
S11318F02F5F3F4F3783268314C08B01EC01FB011C
S11319000084F185E02D0995892BE1F6D80116961E
S11319108D919C911797019617969C938E93169789
S1131920CE01DF91CF911F910F910895FA01AA275B
S1131930283051F1203181F1E8946F936E7F6E5F0E
S11319407F4F8F4F9F4FAF4FB1E03ED0B4E03CD0BC
S1131950670F781F891F9A1FA11D680F791F8A1F9F
S1131960911DA11D6A0F711D811D911DA11D20D006
S113197009F468943F912AE0269F11243019305DC0
S11319803193DEF6CF010895462F4770405D4193B1
S1131990B3E00FD0C9F7F6CF462F4F70405D4A33FE
S11319A018F0495D31FD4052419302D0A9F7EACFC6
S11319B0B4E0A6959795879577956795BA95C9F7F5
S11319C000976105710508959B01AC010A2E0694E8
S11319D05795479537952795BA95C9F7620F731FA1
S11319E0841F951FA01D08952F923F924F925F92DE
S11319F06F927F928F929F92AF92BF92CF92DF921B
S1131A00EF92FF920F931F93CF93DF93CDB7DEB77F
S1131A10CA1BDB0B0FB6F894DEBF0FBECDBF099413
S1131A202A88398848885F846E847D848C849B846A
S1131A30AA84B984C884DF80EE80FD800C811B8178
S1131A40AA81B981CE0FD11D0FB6F894DEBF0FBEA7
S10D1A50CDBFED010895F894FFCF17
S1131A5A53554E000000004D4F4E000000005455EF
S1131A6A4500000000574544000000005448550052
S1131A7A000000465249000000005341540000008F
S1131A8A000400000001000000010001000400013C
S1131A9A0007000100010001000100010001002506
S1131AAA2E32643A252E32643A252E32640A0025EF
S1131ABA2E32642F252E32642F252E326400202DD7
S1131ACA3E00252E32643A252E32643A252E32649B
S1131ADA00202020202020202000483A4D202D3E9E
S1131AEA20252E32643A252E326420202000442FE9
S1131AFA4D202D3E20252E32642F252E326420209F
S1131B0A200053454C45435420534C4F5428302D00
S10F1B1A34292020202020200025640015
S9030000FC
