:100000000C9435000C945D000C945D000C945D0024
:100010000C945D000C945D000C945D000C945D00EC
:100020000C945D000C945D000C945D000C945D00DC
:100030000C945D000C945D000C945D000C945D00CC
:100040000C945D000C945D000C945D000C945D00BC
:100050000C945D000C945D000C945D000C945D00AC
:100060000C945D000C945D00840811241FBECFEF3A
:10007000D8E0DEBFCDBF11E0A0E0B1E0EAEFF6E1ED
:1000800002C005900D92A23BB107D9F721E0A2EB87
:10009000B1E001C01D92A33BB207E1F710E0C5E358
:1000A000D0E004C02197FE010E948B08C433D10721
:1000B000C9F70E9454040C947B0B0C940000089523
:1000C0008FEF8093B800089584EA8093BC008091FC
:1000D000BC008823E4F7089584E98093BC00089568
:1000E0006093BB0084E88093BC008091BC008823AF
:1000F000E4F7089584EC8093BC008091BC008823D1
:10010000E4F78091BB00089584E88093BC0080915F
:10011000BC008823E4F78091BB00089550E040E0E4
:1001200080E04430F0F49DEC699F912D1124292F3B
:10013000269526952695220F322F330F330F230F46
:10014000621B262F692F66956695669530E0052E11
:1001500002C0220F331F0A94E2F7822B5C5F4F5FCD
:10016000E0CF0895262F207F30E0C901880F991F26
:10017000220F331F220F331F220F331F280F391F67
:100180003595279535952795359527953595279557
:10019000862F8870280F862F8470282B962F9270B8
:1001A000822F892B6170862B0895CF93DF93EC010A
:1001B0000E94640060EDCE010E9470006EE0CE01EE
:1001C0000E94700060E2CE010E94700068E0CE01E3
:1001D0000E947000CE010E946C00DF91CF910895C3
:1001E000AF92CF92DF92EF92FF920F931F93CF9334
:1001F000DF93EC01D62EF42E122F0E94640060EDE6
:10020000CE010E94700060E0CE010E9470006D2D52
:10021000CE010E948E00682FCE010E9470006F2DCB
:10022000CE010E948E00682FCE010E947000612FC7
:10023000CE010E948E00682FCE010E9470006C2DAE
:10024000CE010E948E00682FCE010E947000602FA8
:10025000CE010E948E00682FCE010E9470006E2D8C
:10026000CE010E948E00682FCE010E9470006A2D80
:10027000CE010E948E00682FCE010E947000CE0138
:100280000E946C00DF91CF911F910F91FF90EF9032
:10029000DF90CF90AF9008954F925F926F927F92D0
:1002A0008F929F92AF92BF92CF92DF92EF92FF9286
:1002B0000F931F93CF93DF93EC014B013A01290178
:1002C0000E94640060EDCE010E94700060E0CE01EB
:1002D0000E947000CE010E946C00CE010E9464005A
:1002E00061EDCE010E947000CE010E947A00682F5D
:1002F000CE010E94B20090E0F40191838083CE0190
:100300000E947A00682FCE010E94B20090E0F301B3
:1003100091838083CE010E947A00682FCE010E94D3
:10032000B20090E0F20191838083CE010E947A00B6
:10033000682FCE010E94B20090E0F7019183808384
:10034000CE010E947A00682FCE010E94B20090E098
:10035000F80191838083CE010E947A00682FCE013C
:100360000E94B20090E0F60191838083CE010E944A
:100370008400682FCE010E94B20090E0F5019183C5
:100380008083CE010E946C00DF91CF911F910F916D
:10039000FF90EF90DF90CF90BF90AF909F908F90A5
:1003A0007F906F905F904F900895CF93DF93EC0113
:1003B0000E946000CE010E94D500DF91CF91089588
:1003C0008BB18F70962F907F892B8BB98BB18E7FDD
:1003D0008BB98BB182608BB900C08BB18D7F8BB92B
:1003E0008BB190E1699FB00111248F70682B6BB9BC
:1003F0008BB182608BB98BB18D7F8BB90895CF9310
:10040000DF93EC018FEF8AB983EF91E00197F1F769
:1004100000C0000062E0CE010E94E00168E2CE016F
:100420000E94E0016CE0CE010E94E00166E0CE0196
:100430000E94E00161E0CE010E94E00183EF91E0C3
:100440000197F1F700C00000DF91CF9108958BB1C3
:100450008F70962F907F892B8BB98BB181608BB970
:100460008BB182608BB900008BB18D7F8BB98BB162
:1004700090E1699FB00111248F70682B6BB98BB12B
:1004800082608BB98BB18D7F8BB983EF91E001973F
:10049000F1F700C000000895EF92FF920F931F93B1
:1004A000CF93DF937C018B01C0E0D0E0F801EC0F2B
:1004B000FD1F6081662329F0C7010E942702219653
:1004C000F5CFDF91CF911F910F91FF90EF9008959D
:1004D000CF93DF93EC0161E00E94E00183EF91E0B4
:1004E0000197F1F700C0000060E0CE010E94E0013A
:1004F000DF91CF910895611108C0403130F44F7001
:10050000642F60680E94E0010895613039F4403141
:1005100028F44F70642F606C0E94E00108956FE032
:100520000E94E00108956CE00E94E00108956F923E
:100530007F928F929F92AF92BF92CF92DF92EF9273
:10054000FF920F931F93CF93DF93CDB7DEB7A097A2
:100550000FB6F894DEBF0FBECDBF4C013F932F9373
:100560005F934F937F936F938FE491E09F938F936B
:10057000CE0101963C019F938F930E949108BF92F8
:10058000AF92DF92CF921F930F938FE591E09F93ED
:100590008F938E010F5E1F4F1F930F930E94910840
:1005A000B301C4010E944C026EE571E0C4010E94D7
:1005B0004C02B701660F771F660F771F660F771F14
:1005C0006E197F0960507F4FC4010E944C0260EC9D
:1005D000C4010E94E001B801C4010E944C020FB6A0
:1005E000F894DEBF0FBECDBFA0960FB6F894DEBF65
:1005F0000FBECDBFDF91CF911F910F91FF90EF9074
:10060000DF90CF90BF90AF909F908F907F906F9032
:1006100008952F923F924F925F926F927F928F92A6
:100620009F92AF92BF92CF92DF92EF92FF920F9381
:100630001F93CF93DF93CDB7DEB7A4970FB6F8948F
:10064000DEBF0FBECDBF3C0169A37AA3542E452E59
:10065000322E232E0BA31CA340E060E00E947B02FD
:100660002F923F924F925F928AA18F9399A19F936D
:100670008EE691E09F938F938E010F5F1F4F1F9324
:100680000F930E949108BF92AF92DF92CF928CA1FC
:100690008F939BA19F938FE591E09F938F936E0122
:1006A00081E1C80ED11CDF92CF920E949108B8015F
:1006B000C3010E944C026CE871E0C3010E944C022D
:1006C000B701660F771F660F771F660F771F6E19CA
:1006D0007F0960507F4FC3010E944C0260ECC30150
:1006E0000E94E001B601C3010E944C02F401EE0F2A
:1006F000FF1FEE0FFF1FEF5CFE4F40816281C301C1
:100700000E947B02C3010E948F0287EA91E6019753
:10071000F1F700C000000FB6F894DEBF0FBECDBFEA
:10072000A4960FB6F894DEBF0FBECDBFDF91CF9178
:100730001F910F91FF90EF90DF90CF90BF90AF90FF
:100740009F908F907F906F905F904F903F902F90F1
:100750000895AF92BF92CF92DF92EF92FF920F93E4
:100760001F93CF93DF93CDB7DEB760970FB6F894A2
:10077000DEBF0FBECDBF8C01B62EA72EF42EE52E08
:10078000690140E060E00E947B026DE771E0C80112
:100790000E944C0240E061E0C8010E947B02AF92DF
:1007A000BF92EF92FF928EE891E09F938F93CE01DC
:1007B00001967C019F938F930E949108B701C80115
:1007C0000E944C020FB6F894DEBF0FBECDBFCA9494
:1007D000CD2811F441E001C046E061E0C8010E946B
:1007E0007B02C8010E948F0260960FB6F894DEBFAC
:1007F0000FBECDBFDF91CF911F910F91FF90EF9072
:10080000DF90CF90BF90AF900895EF92FF920F933B
:100810001F93CF93DF93CDB7DEB760970FB6F894F1
:10082000DEBF0FBECDBF8C01F62EE72E40E060E0AC
:100830000E947B026AE971E0C8010E944C0240E01C
:1008400061E0C8010E947B02EF92FF928EEA91E084
:100850009F938F93CE0101967C019F938F930E946B
:100860009108B701C8010E944C020F900F900F90A1
:100870000F900F900F9060960FB6F894DEBF0FBEEA
:10088000CDBFDF91CF911F910F91FF90EF90089511
:10089000019749F46F3F7F4F31F461E070E082EBE4
:1008A00091E00E945F000895CF93DF93CDB7DEB74C
:1008B000C754D1090FB6F894DEBF0FBECDBF82EB8F
:1008C00091E00E94D50182EB91E00E94FF0182E05D
:1008D00084B984E08AB98FE185B90F2EF5E1AF2E96
:1008E000B12CF02D0F2EF5E0CF2ED12CF02D6894E9
:1008F000EE24E2F8F12C0EE110E020E030E040E0E0
:1009000050E060E070E082EB91E00E94F0008AE04D
:10091000FE013196DF01282F1D922A95E9F73A96BC
:10092000DF01282F1D922A95E9F73A96DF011D92E3
:100930008A95E9F78AE0E5E4F1E0DE015F9601904F
:100940000D928A95E1F722961FAE1EAE2297212CBA
:10095000312C26961FAE1EAE269724961FAE1EAED5
:10096000249728961FAE1EAE28971DAE1CAE412CB4
:10097000512C612C712C82EB91E00E94FF0182EBE3
:1009800091E00E949302FE01B9965F019E01255DF0
:100990003F4F6901AE01435D5F4F7A018E01015DFA
:1009A0001F4F2A5F3F4F4A5F5F4FBE016B5C7F4F17
:1009B00082EB91E00E944C0183B131E0582F5170DD
:1009C0005AAF1BAE80FD30E083B18270E82EF12C6F
:1009D00061E0E114F10409F060E083B18470C82E95
:1009E000D12C81E088AFC114D10409F018AE03B155
:1009F000087010E091E099AF0115110509F019AEEA
:100A000023B122952F7081E02827217091E04DA914
:100A10005EA9443051050CF090E081E04BA95CA93F
:100A2000452B09F080E0892391E049A95AA9452B7B
:100A300009F090E08823B1F09923A1F080E090E0E4
:100A4000853091057CF4FC01EE0FFF1FA1E0B0E0C2
:100A5000AC0FBD1FEA0FFB1F41E050E0578F468FE0
:100A60000196EECF81E02114310409F080E0882363
:100A700051F0222341F022961FAE1EAE2297E1E0F4
:100A8000F0E0FDAFECAF4CAD5DAD4130510509F08C
:100A900030C126968EAD9FAD2697892BB9F522964B
:100AA000AEADBFAD2297AB2B91F482EB91E00E94EB
:100AB000680281E02296EEADFFAD2297EF2B09F0A0
:100AC00080E0282F30E022963FAF2EAF2297249669
:100AD0006EAD7FAD249782EB91E00E940504EF2874
:100AE00089F424964EAD5FAD24974F5F5F4F2496F7
:100AF0005FAF4EAF24974530510524F024961FAECA
:100B00001EAE2497012B09F4F2C2F7C22496EEAD73
:100B1000FFAD2497EE0FFF1F81E090E08C0F9D1F2B
:100B2000E80FF91F82849384A080B18028962EADAF
:100B30003FAD2897A401B50182EB91E00E94A90383
:100B4000AAADBBADAB2B71F481E02896EEADFFAD45
:100B50002897EF2B09F080E0282F30E028963FAF50
:100B60002EAF2897EF2809F052C028964EAD5FAD02
:100B70002897452B19F55FEFA51AB50A2496EEAD17
:100B8000FFAD2497EE0FFF1F81E090E08C0F9D1FBB
:100B9000E80FF91FB182A0829CE3A916B10474F09A
:100BA0002496EEADFFAD2497EE0FFF1FA1E0B0E05D
:100BB000AC0FBD1FEA0FFB1F118210822896EEAD0D
:100BC000FFAD2897319719F5FFEF8F1A9F0A2496EA
:100BD000EEADFFAD2497EE0FFF1F21E030E02C0FAC
:100BE0003D1FE20FF31F9386828638E1831691043E
:100BF00074F02496EEADFFAD2497EE0FFF1F41E099
:100C000050E04C0F5D1FE40FF51F13861286CD28B0
:100C100009F04AC028968EAD9FAD2897892BF9F42C
:100C20002496EEADFFAD2497EE0FFF1FA1E0B0E0DC
:100C3000AC0FBD1FEA0FFB1F80819181019791834B
:100C40008083992364F42496EEADFFAD2497EE0FD4
:100C5000FF1FEA0FFB1F8BE390E0918380832896B0
:100C6000EEADFFAD28973197F9F42496EEADFFADC8
:100C70002497EE0FFF1F21E030E02C0F3D1FE20F05
:100C8000F31F82859385019793878287992364F464
:100C90002496EEADFFAD2497EE0FFF1FE20FF31F7A
:100CA00087E190E093878287012B09F026C2249682
:100CB0000EAD1FAD2497000F111F41E050E04C0F07
:100CC0005D1F040F151FEE24E394F12CD8015596F7
:100CD000FC92EE92549782EB91E00E949302F8010D
:100CE000F78EE68E26961FAE1EAE26971DAE1CAE64
:100CF00004C240E050E0453051050CF052C0FA010A
:100D0000EE0FFF1F81E090E08C0F9D1FE80FF91F91
:100D1000A081B1810284F385E02D91E00BA91CA98B
:100D20000A171B0709F090E081E0A9A9BAA9AE173C
:100D3000BF0709F080E09823FA01EE0FFF1FA1E042
:100D4000B0E0AC0FBD1FEA0FFB1F0488F589E02D52
:100D500081E0319709F080E0FA01EE0FFF1FA1E07A
:100D6000B0E0AC0FBD1FEA0FFB1F068CF78DE02D26
:100D700071E0319709F070E0892381F0772371F0F9
:100D800084E08BB9E7EAF1E63197F1F700C00000A3
:100D90001BB85FAF4EAF22242394312C4F5F5F4FBF
:100DA000AACF81E0F1E02F16310409F080E088231A
:100DB000C9F02223B9F0EEADFFADEE0FFF1F41E009
:100DC00050E04C0F5D1FE40FF51F178E168E5FE984
:100DD00086E891E0515080409040E1F700C000006B
:100DE000212C312C81E06114710409F080E088230A
:100DF00059F0332349F0A1EEB4E01197F1F700C0A8
:100E0000000066246394712CB1E0BFABE1E06E1684
:100E1000710409F01FAA332361F0FFA9FF2349F0F1
:100E20002FEF421A520A35E04316510414F0412CB8
:100E3000512C662309F477C04FA9442309F473C0E9
:100E40004114510449F48BA99CA901969CAB8BAB2E
:100E5000CC9714F01CAA1BAA51E04516510449F482
:100E600089A99AA901969AAB89AB489714F01AAA56
:100E700019AA82E048165104A1F48FA598A90196F9
:100E800098AB8FA7809724F081E090E098AB8FA774
:100E90008DA59EA501969EA78DA7079714F01EA667
:100EA0001DA693E04916510459F48BA59CA5019603
:100EB0009CA78BA70D9724F081E090E09CA78BA7BF
:100EC000A4E04A16510451F489A59AA501969AA75F
:100ED00089A78436910514F01AA619A6A9A4BAA464
:100EE000CDA4DEA4EBA4FCA40FA518A929A93AA9B6
:100EF0004BA95CA96DA97EA982EB91E00E94F0004C
:100F0000A9A4BAA4CBA4DCA4EDA4FEA40FA518A99F
:100F100029A93AA94BA95CA96DA97EA9420182EB36
:100F200091E00E940903B8ADBB2309F47FC0EFA98B
:100F3000EE2309F47BC04114510459F48BA99CA9F8
:100F400001979CAB8BAB992324F48BE390E09CAB93
:100F50008BABF1E04F16510459F489A99AA9019776
:100F60009AAB89AB992324F487E190E09AAB89ABE3
:100F700022E042165104B9F48FA598A9019798ABC5
:100F80008FA71816190624F08FE190E098AB8FA771
:100F90008DA59EA501979EA78DA7992324F486E091
:100FA00090E09EA78DA733E04316510459F48BA51A
:100FB0009CA501979CA78BA7992324F48CE090E033
:100FC0009CA78BA744E04416510459F489A59AA51F
:100FD00001979AA789A7992324F483E690E09AA71A
:100FE00089A7A9A4BAA4CDA4DEA4EBA4FCA40FA550
:100FF00018A929A93AA94BA95CA96DA97EA982EBD8
:1010000091E00E94F000A9A4BAA4CBA4DCA4EDA4B2
:10101000FEA40FA518A929A93AA94BA95CA96DA9F5
:101020007EA9420182EB91E00E94090359AD55234C
:10103000D9F08FA98823C1F0A9A4BAA4CDA4DEA4B5
:10104000EBA4FCA40FA518A929A93AA94BA95CA94E
:1010500060E070E082EB91E00E94F00082EB91E0B2
:101060000E949302612C712C6114710461F5DE0100
:1010700099965D01FE01BB966F019E01235D3F4F76
:1010800079018E01015D1F4F2C5F3F4FAE014D5C1A
:101090005F4FBE016B5C7F4F82EB91E00E944C0181
:1010A000A9A4BAA4CBA4DCA4EDA4FEA40FA518A9FE
:1010B00029A93AA94BA95CA96DA97EA982EB91E067
:1010C0000E9497021AC0A9A4BAA4CBA4DCA4EDA4E0
:1010D000FEA40FA518A929A93AA94BA95CA96DA935
:1010E0007EA9420182EB91E00E94090306C041E023
:1010F00050E026965FAF4EAF269787EA91E60197BC
:10110000F1F700C0000037CC6FEF7FEF81E090E097
:101110000E9448040895EE0FFF1F0590F491E02D02
:101120000994AEE0B0E0E7E9F8E00C94520B0D89C9
:101130001E8986E08C831A8309838FEF9FE79E8345
:101140008D83AE01475E5F4F6F89788DCE0101962A
:101150000E94B308EF81F885E00FF11F10822E96F0
:10116000E4E00C946E0BABE0B0E0E9EBF8E00C943B
:10117000440B6C017B018A01FC011782168283817A
:1011800081FFCCC1CE0101963C01F6019381F701AC
:1011900093FD859193FF81917F01882309F4BAC162
:1011A000853239F493FD859193FF81917F018532DA
:1011B00029F4B60190E00E94AA0AE7CF912C212CD5
:1011C000312CFFE1F315D8F08B3279F038F480320E
:1011D00079F08332A1F4232D20611DC08D3261F09E
:1011E000803369F4232D216016C0832D8260382E50
:1011F000E32DE4603E2E2AC0F32DF8601DC037FCBD
:101200002DC020ED280F2A3040F08E32B9F436FC84
:1012100081C1232D2064322E19C036FE06C08AE01B
:10122000989E200D1124922E11C0EAE02E9E200DD2
:101230001124222EF32DF0623F2E08C08C3621F4AB
:10124000832D8068382E02C0883641F4F70193FD63
:10125000859193FF81917F018111B3CF982F9F7D5D
:101260009554933028F40C5F1F4F9FE399830DC072
:10127000833631F0833771F0833509F059C021C0CE
:10128000F801808189830E5F1F4F88248394912CFD
:10129000530113C02801F2E04F0E511CF801A08049
:1012A000B18036FE03C0692D70E002C06FEF7FEFA2
:1012B000C5010E949F0A4C018201F32DFF773F2E4A
:1012C00016C0280122E0420E511CF801A080B18016
:1012D00036FE03C0692D70E002C06FEF7FEFC501DD
:1012E0000E94940A4C01F32DF0683F2E820133FCDA
:1012F0001BC0822D90E088169906B0F4B60180E2FA
:1013000090E00E94AA0A2A94F4CFF50137FC859157
:1013100037FE81915F01B60190E00E94AA0A211078
:101320002A9421E0821A91088114910471F7E8C08F
:10133000843611F0893641F5F80137FE07C0608127
:101340007181828193810C5F1F4F08C06081718120
:10135000072E000C880B990B0E5F1F4FF32DFF76A5
:101360003F2E97FF09C090958095709561957F4FAE
:101370008F4F9F4FF0683F2E2AE030E0A3010E947C
:10138000E60A882E861845C0853731F4232D2F7E36
:10139000B22E2AE030E025C0932D997FB92E8F36EA
:1013A000C1F018F4883579F0B5C0803719F0883766
:1013B00021F0B0C0E92FE061BE2EB4FE0DC0FB2DC0
:1013C000F460BF2E09C034FE0AC0292F2660B22E59
:1013D00006C028E030E005C020E130E002C020E196
:1013E00032E0F801B7FE07C060817181828193818C
:1013F0000C5F1F4F06C06081718180E090E00E5F3E
:101400001F4FA3010E94E60A882E8618FB2DFF7746
:101410003F2E36FE0DC0232D2E7FA22E891458F4A8
:1014200034FE0BC032FC09C0832D8E7EA82E05C071
:10143000B82CA32C03C0B82C01C0B92CA4FE0FC03B
:10144000FE01E80DF11D8081803321F49A2D997EF3
:10145000A92E09C0A2FE06C0B394B39404C08A2D7D
:10146000867809F0B394A3FC11C0A0FE06C0B214A4
:1014700088F4280C922C9B180EC0B21460F4B601AC
:1014800080E290E00E94AA0AB394F7CFB21418F455
:101490002B1802C0982C212CA4FE10C0B60180E3AA
:1014A00090E00E94AA0AA2FE17C0A1FC03C088E730
:1014B00090E002C088E590E0B6010CC08A2D8678E5
:1014C00059F0A1FE02C08BE201C080E2A7FC8DE2D0
:1014D000B60190E00E94AA0A891438F4B60180E3AC
:1014E00090E00E94AA0A9A94F7CF8A94F301E80D3B
:1014F000F11D8081B60190E00E94AA0A8110F5CF0B
:10150000222009F442CEB60180E290E00E94AA0AAD
:101510002A94F6CFF6018681978102C08FEF9FEF64
:101520002B96E2E10C94600BFC0105906150704039
:101530000110D8F7809590958E0F9F1F0895FC019C
:101540006150704001900110D8F7809590958E0FF2
:101550009F1F08950F931F93CF93DF93FB01238168
:1015600021FD03C08FEF9FEF2CC022FF16C04681E4
:101570005781248135814217530744F4A081B181FA
:101580009D012F5F3F4F318320838C9326813781CC
:101590002F5F3F4F3783268314C08B01EC01FB0183
:1015A0000084F185E02D0995892BE1F6D801169686
:1015B0008D919C911797019617969C938E931697F1
:1015C000CE01DF91CF911F910F910895FA01AA27C3
:1015D000283051F1203181F1E8946F936E7F6E5F76
:1015E0007F4F8F4F9F4FAF4FB1E03ED0B4E03CD024
:1015F000670F781F891F9A1FA11D680F791F8A1F07
:10160000911DA11D6A0F711D811D911DA11D20D06D
:1016100009F468943F912AE0269F11243019305D27
:101620003193DEF6CF010895462F4770405D419318
:10163000B3E00FD0C9F7F6CF462F4F70405D4A3365
:1016400018F0495D31FD4052419302D0A9F7EACF2D
:10165000B4E0A6959795879577956795BA95C9F75C
:1016600000976105710508959B01AC010A2E06944F
:101670005795479537952795BA95C9F7620F731F08
:10168000841F951FA01D08952F923F924F925F9245
:101690006F927F928F929F92AF92BF92CF92DF9282
:1016A000EF92FF920F931F93CF93DF93CDB7DEB7E7
:1016B000CA1BDB0B0FB6F894DEBF0FBECDBF09947B
:1016C0002A88398848885F846E847D848C849B84D2
:1016D000AA84B984C884DF80EE80FD800C811B81E0
:1016E000AA81B981CE0FD11D0FB6F894DEBF0FBE0F
:0A16F000CDBFED010895F894FFCF7F
:1016FA0053554E000000004D4F4E00000000545557
:10170A0045000000005745440000000054485500B9
:10171A0000000046524900000000534154000000F6
:10172A00000400000007000000010001000400019D
:10173A00000700010001000100010001000100256D
:10174A002E32643A252E32643A252E32640A002556
:10175A002E32642F252E32642F252E326400252E38
:10176A0032643A252E32643A252E326400484F55A7
:10177A00523A4D494E202020202020202000252E9C
:10178A00326420203A252E32640053454C45435496
:10179A0020534C4F54202020202020202000256454
:0217AA0000003D
:00000001FF
