:100000000C9435000C945D000C945D000C945D0024
:100010000C945D000C945D000C945D000C945D00EC
:100020000C945D000C945D000C945D000C945D00DC
:100030000C945D000C945D000C945D000C945D00CC
:100040000C945D000C945D000C945D000C945D00BC
:100050000C945D000C945D000C945D000C945D00AC
:100060000C945D000C945D00D10411241FBECFEFF1
:10007000D8E0DEBFCDBF11E0A0E0B1E0E4E2F7E1FF
:1000800002C005900D92A23BB107D9F721E0A2EB87
:10009000B1E001C01D92A33BB207E1F710E0C5E358
:1000A000D0E004C02197FE010E94A008C433D1070C
:1000B000C9F70E9499000C94900B0C9400008FEFEC
:1000C0008093B800089584EA8093BC008091BC00BE
:1000D0008823E4F7089584E98093BC000895809311
:1000E000BB0084E88093BC008091BC008823E4F7C7
:1000F000089584EC8093BC008091BC008823E4F7D1
:100100008091BB00089584E88093BC008091BC007E
:100110008823E4F78091BB000895019749F46F3F6D
:100120007F4F31F461E070E082EB91E00E94D804EF
:100130000895CF93DF93CDB7DEB7C754D1090FB67B
:10014000F894DEBF0FBECDBF82EB91E00E94410765
:1001500082EB91E00E94F80484E084B982E08AB9DD
:100160008FE18BB920E030E040E050E060E070E0EB
:1001700082EB91E00E94A20705E110E025E030E06B
:1001800044E050E06EE170E082EB91E00E94B50740
:100190008AE0FE013196DF01282F1D922A95E9F7AA
:1001A0003A96DF01282F1D922A95E9F73A96DF014A
:1001B0001D928A95E9F78AE0E5E4F1E0DE015F96B9
:1001C00001900D928A95E1F722961FAE1EAE2297FE
:1001D000212C312C26961FAE1EAE269724961FAEDC
:1001E0001EAE249728961FAE1EAE28971DAE1CAEDD
:1001F000412C512C612C712C82EB91E00E94F8046F
:1002000082EB91E00E948C05FE01B9965F019E0190
:10021000255D3F4F6901AE01435D5F4F7A018E015D
:10022000015D1F4F2A5F3F4F4A5F5F4FBE016B5C0E
:100230007F4F82EB91E00E94460789B131E0582F51
:1002400051705AAF1BAE80FD30E089B18270E82E4C
:10025000F12C61E0E114F10409F060E089B18470EF
:10026000C82ED12C81E088AFC114D10409F018AE9A
:1002700009B1087010E091E099AF0115110509F07E
:1002800019AE29B122952F7081E02827217091E0C5
:100290004DA95EA94B3051050CF090E081E04BA9CF
:1002A0005CA9452B09F080E0892391E049A95AA96E
:1002B000452B09F090E08823B1F09923A1F080E06C
:1002C00090E0853091057CF4FC01EE0FFF1FA1E06A
:1002D000B0E0AC0FBD1FEA0FFB1F41E050E0578FAD
:1002E000468F0196EECF81E02114310409F080E0C1
:1002F000882351F0222341F022961FAE1EAE229792
:10030000E1E0F0E0FDAFECAF4CAD5DAD413051054B
:1003100009F030C126968EAD9FAD2697892BB9F591
:100320002296AEADBFAD2297AB2B91F482EB91E05C
:100330000E94610581E02296EEADFFAD2297EF2B82
:1003400009F080E0282F30E022963FAF2EAF2297B1
:1003500024966EAD7FAD249782EB91E00E94FE065D
:10036000EF2889F424964EAD5FAD24974F5F5F4F21
:1003700024965FAF4EAF24974530510524F0249664
:100380001FAE1EAE2497012B09F4FEC203C32496B0
:10039000EEADFFAD2497EE0FFF1F81E090E08C0FD4
:1003A0009D1FE80FF91F82849384A080B180289656
:1003B0002EAD3FAD2897A401B50182EB91E00E94DC
:1003C000A206AAADBBADAB2B71F481E02896EEADD1
:1003D000FFAD2897EF2B09F080E0282F30E028961A
:1003E0003FAF2EAF2897EF2809F052C028964EADA8
:1003F0005FAD2897452B19F55FEFA51AB50A24962E
:10040000EEADFFAD2497EE0FFF1F81E090E08C0F63
:100410009D1FE80FF91FB182A0829CE3A916B104C9
:1004200074F02496EEADFFAD2497EE0FFF1FA1E010
:10043000B0E0AC0FBD1FEA0FFB1F1182108228969F
:10044000EEADFFAD2897319719F5FFEF8F1A9F0A90
:100450002496EEADFFAD2497EE0FFF1F21E030E0B4
:100460002C0F3D1FE20FF31F9386828638E183161F
:10047000910474F02496EEADFFAD2497EE0FFF1FAC
:1004800041E050E04C0F5D1FE40FF51F138612860C
:10049000CD2809F04AC028968EAD9FAD2897892BAC
:1004A000F9F42496EEADFFAD2497EE0FFF1FA1E007
:1004B000B0E0AC0FBD1FEA0FFB1F80819181019757
:1004C00091838083992364F42496EEADFFAD249745
:1004D000EE0FFF1FEA0FFB1F8BE390E091838083F9
:1004E0002896EEADFFAD28973197F9F42496EEAD3E
:1004F000FFAD2497EE0FFF1F21E030E02C0F3D1FD2
:10050000E20FF31F82859385019793878287992352
:1005100064F42496EEADFFAD2497EE0FFF1FE20FBB
:10052000F31F87E190E093878287012B09F032C2A5
:1005300024960EAD1FAD2497000F111F41E050E02F
:100540004C0F5D1F040F151FEE24E394F12CD8010E
:100550005596FC92EE92549782EB91E00E948C05A6
:10056000F801F78EE68E26961FAE1EAE26971DAEBC
:100570001CAE10C240E050E0453051050CF052C0B6
:10058000FA01EE0FFF1F81E090E08C0F9D1FE80F36
:10059000F91FA081B1810284F385E02D91E00BA9C0
:1005A0001CA90A171B0709F090E081E0A9A9BAA9C4
:1005B000AE17BF0709F080E09823FA01EE0FFF1F86
:1005C000A1E0B0E0AC0FBD1FEA0FFB1F0488F58966
:1005D000E02D81E0319709F080E0FA01EE0FFF1F76
:1005E000A1E0B0E0AC0FBD1FEA0FFB1F068CF78D3A
:1005F000E02D71E0319709F070E0892381F07723D5
:1006000071F084E085B9E7EAF1E63197F1F700C0CF
:10061000000015B85FAF4EAF22242394312C4F5FFA
:100620005F4FAACF81E0F1E02F16310409F080E09E
:100630008823C9F02223B9F0EEADFFADEE0FFF1F06
:1006400041E050E04C0F5D1FE40FF51F178E168E32
:100650005FE986E891E0515080409040E1F700C0AA
:100660000000212C312C81E06114710409F080E03C
:10067000882359F0332349F0A1EEB4E01197F1F744
:1006800000C0000066246394712CB1E0BFABE1E0D0
:100690006E16710409F01FAA332361F0FFA9FF232E
:1006A00049F02FEF421A520A35E04316510414F074
:1006B000412C512C662309F47BC04FA9442309F433
:1006C00077C04114510449F48BA99CA901969CABB5
:1006D0008BABCC9714F01CAA1BAA51E04516510411
:1006E00049F489A99AA901969AAB89AB489714F065
:1006F0001AAA19AA82E048165104A1F48FA598A954
:10070000019698AB8FA7809724F081E090E098AB9A
:100710008FA78DA59EA501969EA78DA7079714F07C
:100720001EA61DA693E04916510459F48BA59CA55D
:1007300001969CA78BA70D9724F081E090E09CA7E1
:100740008BA7A4E04A16510451F489A59AA50196F5
:100750009AA789A78436910514F01AA619A629A983
:100760003AA94BA95CA96DA97EA982EB91E00E94F0
:10077000A20709A51AA52DA53EA54BA55CA56FA5A9
:1007800078A982EB91E00E94B507A9A4BAA4CBA4F2
:10079000DCA4EDA4FEA40FA518A929A93AA94BA988
:1007A0005CA96DA97EA9420182EB91E00E9402063C
:1007B000B8ADBB2309F483C0EFA9EE2309F47FC0D1
:1007C0004114510459F48BA99CA901979CAB8BABA4
:1007D000992324F48BE390E09CAB8BABF1E04F16B4
:1007E000510459F489A99AA901979AAB89AB992325
:1007F00024F487E190E09AAB89AB22E042165104E1
:10080000B9F48FA598A9019798AB8FA71816190668
:1008100024F08FE190E098AB8FA78DA59EA501975E
:100820009EA78DA7992324F486E090E09EA78DA72C
:1008300033E04316510459F48BA59CA501979CA75E
:100840008BA7992324F48CE090E09CA78BA744E02D
:100850004416510459F489A59AA501979AA789A726
:10086000992324F483E690E09AA789A729A93AA9B5
:100870004BA95CA96DA97EA982EB91E00E94A20719
:1008800009A51AA52DA53EA54BA55CA56FA578A920
:1008900082EB91E00E94B507A9A4BAA4CBA4DCA482
:1008A000EDA4FEA40FA518A929A93AA94BA95CA9F2
:1008B0006DA97EA9420182EB91E00E94020659AD2A
:1008C0005523F9F08FA98823E1F029A93AA94BA96A
:1008D0005CA960E070E082EB91E00E94A20709A5AC
:1008E0001AA52DA53EA54BA55CA56FA578A982EB01
:1008F00091E00E94B50782EB91E00E948C05612C8B
:10090000712C6114710461F5DE0199965D01FE019F
:10091000BB966F019E01235D3F4F79018E01015D02
:100920001F4F2C5F3F4FAE014D5C5F4FBE016B5CB4
:100930007F4F82EB91E00E944607A9A4BAA4CBA402
:10094000DCA4EDA4FEA40FA518A929A93AA94BA9D6
:100950005CA96DA97EA982EB91E00E9490051AC066
:10096000A9A4BAA4CBA4DCA4EDA4FEA40FA518A945
:1009700029A93AA94BA95CA96DA97EA9420182EBDC
:1009800091E00E94020606C041E050E026965FAF6B
:100990004EAF269787EA91E60197F1F700C0000075
:1009A0002BCC6FEF7FEF81E090E00E948D000895E7
:1009B000089585B18F70962F907F892B85B985B169
:1009C0008E7F85B985B1826085B900C085B18D7F84
:1009D00085B985B190E1699FB00111248F70682BB2
:1009E00065B985B1826085B985B18D7F85B9089576
:1009F000CF93DF93EC018FEF84B983EF91E0019700
:100A0000F1F700C0000062E0CE010E94D90468E264
:100A1000CE010E94D9046CE0CE010E94D90466E0A8
:100A2000CE010E94D90461E0CE010E94D90483EF77
:100A300091E00197F1F700C00000DF91CF91089598
:100A400085B18F70962F907F892B85B985B1816094
:100A500085B985B1826085B9000085B18D7F85B982
:100A600085B190E1699FB00111248F70682B65B941
:100A700085B1826085B985B18D7F85B983EF91E0BD
:100A80000197F1F700C000000895EF92FF920F93D5
:100A90001F93CF93DF937C018B01C0E0D0E0F8017E
:100AA000EC0FFD1F6081662329F0C7010E9420051D
:100AB0002196F5CFDF91CF911F910F91FF90EF908D
:100AC0000895CF93DF93EC0161E00E94D90483EF96
:100AD00091E00197F1F700C0000060E0CE010E94B4
:100AE000D904DF91CF910895611108C0403130F4ED
:100AF0004F70642F60680E94D9040895613039F402
:100B0000403128F44F70642F606C0E94D90408951E
:100B10006FE00E94D90408956CE00E94D904089502
:100B20006F927F928F929F92AF92BF92CF92DF92FD
:100B3000EF92FF920F931F93CF93DF93CDB7DEB762
:100B4000A0970FB6F894DEBF0FBECDBF4C013F9308
:100B50002F935F934F937F936F938FE491E09F93D5
:100B60008F93CE0101963C019F938F930E94A6081C
:100B7000BF92AF92DF92CF921F930F938FE591E0D8
:100B80009F938F938E010F5E1F4F1F930F930E94B1
:100B9000A608B301C4010E9445056EE571E0C401D9
:100BA0000E944505B701660F771F660F771F660F16
:100BB000771F6E197F0960507F4FC4010E94450561
:100BC00060ECC4010E94D904B801C4010E9445052B
:100BD0000FB6F894DEBF0FBECDBFA0960FB6F89447
:100BE000DEBF0FBECDBFDF91CF911F910F91FF9060
:100BF000EF90DF90CF90BF90AF909F908F907F90BD
:100C00006F9008952F923F924F925F926F927F92D2
:100C10008F929F92AF92BF92CF92DF92EF92FF920C
:100C20000F931F93CF93DF93CDB7DEB7A4970FB683
:100C3000F894DEBF0FBECDBF3C0169A37AA3542E4A
:100C4000452E322E232E0BA31CA340E060E00E9411
:100C500074052F923F924F925F928AA18F9399A130
:100C60009F938EE691E09F938F938E010F5F1F4FAE
:100C70001F930F930E94A608BF92AF92DF92CF926C
:100C80008CA18F939BA19F938FE591E09F938F936E
:100C90006E0181E1C80ED11CDF92CF920E94A6089E
:100CA000B801C3010E9445056CE871E0C3010E94D0
:100CB0004505B701660F771F660F771F660F771F11
:100CC0006E197F0960507F4FC3010E94450560EC9B
:100CD000C3010E94D904B601C3010E944505F40175
:100CE000EE0FFF1FEE0FFF1FEF5CFE4F4081628192
:100CF000C3010E947405C3010E94880587EA91E63A
:100D00000197F1F700C000000FB6F894DEBF0FBEE8
:100D1000CDBFA4960FB6F894DEBF0FBECDBFDF9156
:100D2000CF911F910F91FF90EF90DF90CF90BF90E8
:100D3000AF909F908F907F906F905F904F903F907B
:100D40002F900895AF92BF92CF92DF92EF92FF92D1
:100D50000F931F93CF93DF93CDB7DEB760970FB696
:100D6000F894DEBF0FBECDBF8C01B62EA72EF42E99
:100D7000E52E690140E060E00E9474056DE771E0D6
:100D8000C8010E94450540E061E0C8010E94740569
:100D9000AF92BF92EF92FF928EE891E09F938F9374
:100DA000CE0101967C019F938F930E94A608B70104
:100DB000C8010E9445050FB6F894DEBF0FBECDBF37
:100DC000CA94CD2811F441E001C046E061E0C801B9
:100DD0000E947405C8010E94880560960FB6F894B9
:100DE000DEBF0FBECDBFDF91CF911F910F91FF905E
:100DF000EF90DF90CF90BF90AF900895EF92FF9269
:100E00000F931F93CF93DF93CDB7DEB760970FB6E5
:100E1000F894DEBF0FBECDBF8C01F62EE72E40E06A
:100E200060E00E9474056AE971E0C8010E9445050E
:100E300040E061E0C8010E947405EF92FF928EEAE3
:100E400091E09F938F93CE0101967C019F938F93A6
:100E50000E94A608B701C8010E9445050F900F9097
:100E60000F900F900F900F9060960FB6F894DEBF22
:100E70000FBECDBFDF91CF911F910F91FF90EF90EB
:100E800008950E945F000E940A0808954F925F92A1
:100E90006F927F928F929F92AF92BF92CF92DF928A
:100EA000EF92FF920F931F93CF93DF93CDB7DEB7EF
:100EB00027970FB6F894DEBF0FBECDBF3B014A01A6
:100EC0002901BE016C5F7F4FCE0101960E941B0875
:100ED000898190E0F301918380838A8190E0F4011D
:100EE000918380838B8190E0F201918380838D8157
:100EF00090E0F801918380838C8190E0F7019183E9
:100F000080838E8190E0F601918380838F8190E0D1
:100F1000F5019183808327960FB6F894DEBF0FBE4C
:100F2000CDBFDF91CF911F910F91FF90EF90DF9098
:100F3000CF90BF90AF909F908F907F906F905F9079
:100F40004F900895CF93DF9300D01F92CDB7DEB7B7
:100F500069834A832B83CE0101960E945D080F901E
:100F60000F900F90DF91CF9108950F93CF93DF9360
:100F700000D000D0CDB7DEB76A834B8329830C83C2
:100F8000CE0101960E947C080F900F900F900F9059
:100F9000DF91CF910F910895282F207F30E0A90194
:100FA000440F551F220F331F220F331F220F331FF1
:100FB000240F351F35952795359527953595279518
:100FC000359527958F70820F089550E040E060E0DE
:100FD0004430F0F49DEC899F912D1124292F269502
:100FE00026952695220F322F330F330F230F821BA6
:100FF000282F892F86958695869530E0052E02C08C
:10100000220F331F0A94E2F7622B5C5F4F5FE0CF41
:10101000862F08950E94630080ED0E946F008EE08D
:101020000E946F0080E20E946F0088E00E946F00C3
:101030000E946B0008950F931F93CF93DF938C0151
:10104000EB010E94630080ED0E946F0080E00E942F
:101050006F000E946B000E94630081ED0E946F0090
:101060000E9479000E94CC07F80180830E947900D9
:101070000E94CC07F80181830E9479000E94CC076E
:10108000F80182830E9479000E94CC0788830E9425
:1010900079000E94CC0789830E9479000E94CC07C6
:1010A0008A830E9483000E94CC078B830E946B007E
:1010B000DF91CF911F910F910895CF93DF93EC01B2
:1010C0000E94630080ED0E946F0080E00E946F002C
:1010D00088810E94E5070E946F0089810E94E507D0
:1010E0000E946F008A810E94E5070E946F000E94A3
:1010F0006B00DF91CF910895CF93DF93EC010E94B5
:10110000630080ED0E946F0083E00E946F00888181
:101110000E94E5070E946F0089810E94E5070E94F6
:101120006F008A810E94E5070E946F008B810E94F8
:10113000E5070E946F000E946B00DF91CF91089538
:10114000EE0FFF1F0590F491E02D0994AEE0B0E0A2
:10115000ECEAF8E00C94670B0D891E8986E08C831D
:101160001A8309838FEF9FE79E838D83AE01475ECD
:101170005F4F6F89788DCE0101960E94C808EF817C
:10118000F885E00FF11F10822E96E4E00C94830B9B
:10119000ABE0B0E0EEECF8E00C94590B6C017B0195
:1011A0008A01FC0117821682838181FFCCC1CE01A6
:1011B00001963C01F6019381F70193FD859193FF20
:1011C00081917F01882309F4BAC1853239F493FDF6
:1011D000859193FF81917F01853229F4B60190E0DA
:1011E0000E94BF0AE7CF912C212C312CFFE1F3158F
:1011F000D8F08B3279F038F4803279F08332A1F470
:10120000232D20611DC08D3261F0803369F4232DC0
:10121000216016C0832D8260382EE32DE4603E2EBF
:101220002AC0F32DF8601DC037FC2DC020ED280F1B
:101230002A3040F08E32B9F436FC81C1232D20646F
:10124000322E19C036FE06C08AE0989E200D112469
:10125000922E11C0EAE02E9E200D1124222EF32D95
:10126000F0623F2E08C08C3621F4832D8068382E22
:1012700002C0883641F4F70193FD859193FF819177
:101280007F018111B3CF982F9F7D9554933028F41F
:101290000C5F1F4F9FE399830DC0833631F0833776
:1012A00071F0833509F059C021C0F801808189832C
:1012B0000E5F1F4F88248394912C530113C0280183
:1012C000F2E04F0E511CF801A080B18036FE03C041
:1012D000692D70E002C06FEF7FEFC5010E94B40A74
:1012E0004C018201F32DFF773F2E16C0280122E02A
:1012F000420E511CF801A080B18036FE03C0692D5A
:1013000070E002C06FEF7FEFC5010E94A90A4C0197
:10131000F32DF0683F2E820133FC1BC0822D90E03C
:1013200088169906B0F4B60180E290E00E94BF0AE8
:101330002A94F4CFF50137FC859137FE81915F0146
:10134000B60190E00E94BF0A21102A9421E0821A7F
:1013500091088114910471F7E8C0843611F0893640
:1013600041F5F80137FE07C0608171818281938168
:101370000C5F1F4F08C060817181072E000C880B25
:10138000990B0E5F1F4FF32DFF763F2E97FF09C07D
:1013900090958095709561957F4F8F4F9F4FF06826
:1013A0003F2E2AE030E0A3010E94FB0A882E861817
:1013B00045C0853731F4232D2F7EB22E2AE030E050
:1013C00025C0932D997FB92E8F36C1F018F488353A
:1013D00079F0B5C0803719F0883721F0B0C0E92F17
:1013E000E061BE2EB4FE0DC0FB2DF460BF2E09C01F
:1013F00034FE0AC0292F2660B22E06C028E030E055
:1014000005C020E130E002C020E132E0F801B7FE83
:1014100007C060817181828193810C5F1F4F06C07C
:101420006081718180E090E00E5F1F4FA3010E94F8
:10143000FB0A882E8618FB2DFF773F2E36FE0DC047
:10144000232D2E7FA22E891458F434FE0BC032FCBB
:1014500009C0832D8E7EA82E05C0B82CA32C03C0F6
:10146000B82C01C0B92CA4FE0FC0FE01E80DF11D7F
:101470008081803321F49A2D997EA92E09C0A2FE85
:1014800006C0B394B39404C08A2D867809F0B3944F
:10149000A3FC11C0A0FE06C0B21488F4280C922C44
:1014A0009B180EC0B21460F4B60180E290E00E9476
:1014B000BF0AB394F7CFB21418F42B1802C0982CBB
:1014C000212CA4FE10C0B60180E390E00E94BF0A68
:1014D000A2FE17C0A1FC03C088E790E002C088E527
:1014E00090E0B6010CC08A2D867859F0A1FE02C0AA
:1014F0008BE201C080E2A7FC8DE2B60190E00E9481
:10150000BF0A891438F4B60180E390E00E94BF0A54
:101510009A94F7CF8A94F301E80DF11D8081B6010A
:1015200090E00E94BF0A8110F5CF222009F442CE3C
:10153000B60180E290E00E94BF0A2A94F6CFF6013D
:101540008681978102C08FEF9FEF2B96E2E10C948A
:10155000750BFC010590615070400110D8F7809523
:1015600090958E0F9F1F0895FC016150704001906F
:101570000110D8F7809590958E0F9F1F08950F93B7
:101580001F93CF93DF93FB01238121FD03C08FEFD6
:101590009FEF2CC022FF16C04681578124813581E0
:1015A0004217530744F4A081B1819D012F5F3F4F43
:1015B000318320838C93268137812F5F3F4F378380
:1015C000268314C08B01EC01FB010084F185E02D22
:1015D0000995892BE1F6D80116968D919C91179764
:1015E000019617969C938E931697CE01DF91CF911B
:1015F0001F910F910895FA01AA27283051F1203147
:1016000081F1E8946F936E7F6E5F7F4F8F4F9F4F96
:10161000AF4FB1E03ED0B4E03CD0670F781F891FD8
:101620009A1FA11D680F791F8A1F911DA11D6A0FA6
:10163000711D811D911DA11D20D009F468943F9159
:101640002AE0269F11243019305D3193DEF6CF0158
:101650000895462F4770405D4193B3E00FD0C9F71E
:10166000F6CF462F4F70405D4A3318F0495D31FD8B
:101670004052419302D0A9F7EACFB4E0A6959795DE
:10168000879577956795BA95C9F7009761057105B4
:1016900008959B01AC010A2E0694579547953795FE
:1016A0002795BA95C9F7620F731F841F951FA01D58
:1016B00008952F923F924F925F926F927F928F92F6
:1016C0009F92AF92BF92CF92DF92EF92FF920F93D1
:1016D0001F93CF93DF93CDB7DEB7CA1BDB0B0FB6DB
:1016E000F894DEBF0FBECDBF09942A883988488898
:1016F0005F846E847D848C849B84AA84B984C8842E
:10170000DF80EE80FD800C811B81AA81B981CE0F24
:10171000D11D0FB6F894DEBF0FBECDBFED01089509
:04172000F894FFCF6B
:1017240053554E000000004D4F4E0000000054552C
:10173400450000000057454400000000544855008F
:1017440000000046524900000000534154000000CC
:101754000004000000070000000100010004000173
:101764000007000100010001000100010001002543
:101774002E32643A252E32643A252E32640A00252C
:101784002E32642F252E32642F252E326400252E0E
:1017940032643A252E32643A252E326400484F557D
:1017A400523A4D494E202020202020202000252E72
:1017B400326420203A252E32640053454C4543546C
:1017C40020534C4F5420202020202020200025642A
:0217D400000013
:00000001FF
